{
  "address": "0x1D7e314eC6978c1Ad1774cc10E89c756656fCfd6",
  "abi": [
    {
      "inputs": [
        {
          "internalType": "address",
          "name": "priceFeedAddress",
          "type": "address"
        }
      ],
      "stateMutability": "nonpayable",
      "type": "constructor"
    },
    {
      "inputs": [],
      "name": "FundMe__NotOwner",
      "type": "error"
    },
    {
      "stateMutability": "payable",
      "type": "fallback"
    },
    {
      "inputs": [],
      "name": "MINIMUM_USD",
      "outputs": [
        {
          "internalType": "uint256",
          "name": "",
          "type": "uint256"
        }
      ],
      "stateMutability": "view",
      "type": "function"
    },
    {
      "inputs": [],
      "name": "fund",
      "outputs": [],
      "stateMutability": "payable",
      "type": "function"
    },
    {
      "inputs": [
        {
          "internalType": "address",
          "name": "funder",
          "type": "address"
        }
      ],
      "name": "getAddressToAmountFunded",
      "outputs": [
        {
          "internalType": "uint256",
          "name": "",
          "type": "uint256"
        }
      ],
      "stateMutability": "view",
      "type": "function"
    },
    {
      "inputs": [
        {
          "internalType": "uint256",
          "name": "index",
          "type": "uint256"
        }
      ],
      "name": "getFunder",
      "outputs": [
        {
          "internalType": "address",
          "name": "",
          "type": "address"
        }
      ],
      "stateMutability": "view",
      "type": "function"
    },
    {
      "inputs": [],
      "name": "getOwner",
      "outputs": [
        {
          "internalType": "address",
          "name": "",
          "type": "address"
        }
      ],
      "stateMutability": "view",
      "type": "function"
    },
    {
      "inputs": [],
      "name": "getPriceFeed",
      "outputs": [
        {
          "internalType": "contract AggregatorV3Interface",
          "name": "",
          "type": "address"
        }
      ],
      "stateMutability": "view",
      "type": "function"
    },
    {
      "inputs": [],
      "name": "i_owner",
      "outputs": [
        {
          "internalType": "address",
          "name": "",
          "type": "address"
        }
      ],
      "stateMutability": "view",
      "type": "function"
    },
    {
      "inputs": [],
      "name": "withdraw",
      "outputs": [],
      "stateMutability": "nonpayable",
      "type": "function"
    },
    {
      "stateMutability": "payable",
      "type": "receive"
    }
  ],
  "transactionHash": "0x051177cbcb774efcf475767e0e14bc7435f7d2c45858224b8bca13e60907cabc",
  "args": [
    "0x694AA1769357215DE4FAC081bf1f309aDC325306"
  ],
  "numDeployments": 2,
  "solcInputHash": "04fa2e1150d07b8253f025063df9b7b4",
  "bytecode": "0x60a060405234801561001057600080fd5b50604051620010263803806200102683398181016040528101906100349190610115565b3373ffffffffffffffffffffffffffffffffffffffff1660808173ffffffffffffffffffffffffffffffffffffffff1660601b8152505080600260006101000a81548173ffffffffffffffffffffffffffffffffffffffff021916908373ffffffffffffffffffffffffffffffffffffffff16021790555050610142565b600080fd5b600073ffffffffffffffffffffffffffffffffffffffff82169050919050565b60006100e2826100b7565b9050919050565b6100f2816100d7565b81146100fd57600080fd5b50565b60008151905061010f816100e9565b92915050565b60006020828403121561012b5761012a6100b2565b5b600061013984828501610100565b91505092915050565b60805160601c610eb76200016f60003960008181610358015281816105a6015261063d0152610eb76000f3fe60806040526004361061007f5760003560e01c80639e87a5cd1161004e5780639e87a5cd14610142578063b60d42881461016d578063d7b4750c14610177578063dba6335f146101b45761008e565b80630343fb25146100985780633ccfd60b146100d55780636b69a592146100ec578063893d20e8146101175761008e565b3661008e5761008c6101df565b005b6100966101df565b005b3480156100a457600080fd5b506100bf60048036038101906100ba9190610845565b61030d565b6040516100cc919061088b565b60405180910390f35b3480156100e157600080fd5b506100ea610356565b005b3480156100f857600080fd5b50610101610596565b60405161010e919061088b565b60405180910390f35b34801561012357600080fd5b5061012c6105a2565b60405161013991906108b5565b60405180910390f35b34801561014e57600080fd5b506101576105ca565b604051610164919061092f565b60405180910390f35b6101756101df565b005b34801561018357600080fd5b5061019e60048036038101906101999190610976565b6105f4565b6040516101ab91906108b5565b60405180910390f35b3480156101c057600080fd5b506101c961063b565b6040516101d691906108b5565b60405180910390f35b678ac7230489e8000061021d600260009054906101000a900473ffffffffffffffffffffffffffffffffffffffff163461065f90919063ffffffff16565b101561025e576040517f08c379a000000000000000000000000000000000000000000000000000000000815260040161025590610a00565b60405180910390fd5b60003390506000819080600181540180825580915050600190039060005260206000200160009091909190916101000a81548173ffffffffffffffffffffffffffffffffffffffff021916908373ffffffffffffffffffffffffffffffffffffffff16021790555034600160008373ffffffffffffffffffffffffffffffffffffffff1673ffffffffffffffffffffffffffffffffffffffff1681526020019081526020016000208190555050565b6000600160008373ffffffffffffffffffffffffffffffffffffffff1673ffffffffffffffffffffffffffffffffffffffff168152602001908152602001600020549050919050565b7f000000000000000000000000000000000000000000000000000000000000000073ffffffffffffffffffffffffffffffffffffffff163373ffffffffffffffffffffffffffffffffffffffff16146103db576040517f579610db00000000000000000000000000000000000000000000000000000000815260040160405180910390fd5b60005b600080549050811015610486576000808281548110610400576103ff610a20565b5b9060005260206000200160009054906101000a900473ffffffffffffffffffffffffffffffffffffffff1690506000600160008373ffffffffffffffffffffffffffffffffffffffff1673ffffffffffffffffffffffffffffffffffffffff1681526020019081526020016000208190555050808061047e90610a7e565b9150506103de565b50600067ffffffffffffffff8111156104a2576104a1610ac7565b5b6040519080825280602002602001820160405280156104d05781602001602082028036833780820191505090505b50600090805190602001906104e692919061073b565b5060003373ffffffffffffffffffffffffffffffffffffffff164760405161050d90610b27565b60006040518083038185875af1925050503d806000811461054a576040519150601f19603f3d011682016040523d82523d6000602084013e61054f565b606091505b5050905080610593576040517f08c379a000000000000000000000000000000000000000000000000000000000815260040161058a90610b88565b60405180910390fd5b50565b678ac7230489e8000081565b60007f0000000000000000000000000000000000000000000000000000000000000000905090565b6000600260009054906101000a900473ffffffffffffffffffffffffffffffffffffffff16905090565b600080828154811061060957610608610a20565b5b9060005260206000200160009054906101000a900473ffffffffffffffffffffffffffffffffffffffff169050919050565b7f000000000000000000000000000000000000000000000000000000000000000081565b60008061066b8361069b565b90506000670de0b6b3a764000085836106849190610ba8565b61068e9190610c31565b9050809250505092915050565b6000808273ffffffffffffffffffffffffffffffffffffffff1663feaf968c6040518163ffffffff1660e01b815260040160a06040518083038186803b1580156106e457600080fd5b505afa1580156106f8573d6000803e3d6000fd5b505050506040513d601f19601f8201168201806040525081019061071c9190610cef565b5050509150506402540be400816107339190610d6a565b915050919050565b8280548282559060005260206000209081019282156107b4579160200282015b828111156107b35782518260006101000a81548173ffffffffffffffffffffffffffffffffffffffff021916908373ffffffffffffffffffffffffffffffffffffffff1602179055509160200191906001019061075b565b5b5090506107c191906107c5565b5090565b5b808211156107de5760008160009055506001016107c6565b5090565b600080fd5b600073ffffffffffffffffffffffffffffffffffffffff82169050919050565b6000610812826107e7565b9050919050565b61082281610807565b811461082d57600080fd5b50565b60008135905061083f81610819565b92915050565b60006020828403121561085b5761085a6107e2565b5b600061086984828501610830565b91505092915050565b6000819050919050565b61088581610872565b82525050565b60006020820190506108a0600083018461087c565b92915050565b6108af81610807565b82525050565b60006020820190506108ca60008301846108a6565b92915050565b6000819050919050565b60006108f56108f06108eb846107e7565b6108d0565b6107e7565b9050919050565b6000610907826108da565b9050919050565b6000610919826108fc565b9050919050565b6109298161090e565b82525050565b60006020820190506109446000830184610920565b92915050565b61095381610872565b811461095e57600080fd5b50565b6000813590506109708161094a565b92915050565b60006020828403121561098c5761098b6107e2565b5b600061099a84828501610961565b91505092915050565b600082825260208201905092915050565b7f4469646e27742073656e6420656e6f7567682045544800000000000000000000600082015250565b60006109ea6016836109a3565b91506109f5826109b4565b602082019050919050565b60006020820190508181036000830152610a19816109dd565b9050919050565b7f4e487b7100000000000000000000000000000000000000000000000000000000600052603260045260246000fd5b7f4e487b7100000000000000000000000000000000000000000000000000000000600052601160045260246000fd5b6000610a8982610872565b91507fffffffffffffffffffffffffffffffffffffffffffffffffffffffffffffffff821415610abc57610abb610a4f565b5b600182019050919050565b7f4e487b7100000000000000000000000000000000000000000000000000000000600052604160045260246000fd5b600081905092915050565b50565b6000610b11600083610af6565b9150610b1c82610b01565b600082019050919050565b6000610b3282610b04565b9150819050919050565b7f53656e64206661696c6564000000000000000000000000000000000000000000600082015250565b6000610b72600b836109a3565b9150610b7d82610b3c565b602082019050919050565b60006020820190508181036000830152610ba181610b65565b9050919050565b6000610bb382610872565b9150610bbe83610872565b9250817fffffffffffffffffffffffffffffffffffffffffffffffffffffffffffffffff0483118215151615610bf757610bf6610a4f565b5b828202905092915050565b7f4e487b7100000000000000000000000000000000000000000000000000000000600052601260045260246000fd5b6000610c3c82610872565b9150610c4783610872565b925082610c5757610c56610c02565b5b828204905092915050565b600069ffffffffffffffffffff82169050919050565b610c8181610c62565b8114610c8c57600080fd5b50565b600081519050610c9e81610c78565b92915050565b6000819050919050565b610cb781610ca4565b8114610cc257600080fd5b50565b600081519050610cd481610cae565b92915050565b600081519050610ce98161094a565b92915050565b600080600080600060a08688031215610d0b57610d0a6107e2565b5b6000610d1988828901610c8f565b9550506020610d2a88828901610cc5565b9450506040610d3b88828901610cda565b9350506060610d4c88828901610cda565b9250506080610d5d88828901610c8f565b9150509295509295909350565b6000610d7582610ca4565b9150610d8083610ca4565b9250827f7fffffffffffffffffffffffffffffffffffffffffffffffffffffffffffffff0482116000841360008413161615610dbf57610dbe610a4f565b5b817f80000000000000000000000000000000000000000000000000000000000000000583126000841260008413161615610dfc57610dfb610a4f565b5b827f80000000000000000000000000000000000000000000000000000000000000000582126000841360008412161615610e3957610e38610a4f565b5b827f7fffffffffffffffffffffffffffffffffffffffffffffffffffffffffffffff0582126000841260008412161615610e7657610e75610a4f565b5b82820290509291505056fea26469706673582212204726db9fe3a5286727b95f3f67aa78da4d752feccf0a3b95597e419fbaf9040264736f6c63430008080033",
  "devdoc": {
    "kind": "dev",
    "methods": {},
    "version": 1
  },
  "userdoc": {
    "kind": "user",
    "methods": {},
    "version": 1
  },
  "storageLayout": {
    "storage": [
      {
        "astId": 61,
        "contract": "contracts/FundMe.sol:FundMe",
        "label": "s_funders",
        "offset": 0,
        "slot": "0",
        "type": "t_array(t_address)dyn_storage"
      },
      {
        "astId": 65,
        "contract": "contracts/FundMe.sol:FundMe",
        "label": "s_addressToAmountFunded",
        "offset": 0,
        "slot": "1",
        "type": "t_mapping(t_address,t_uint256)"
      },
      {
        "astId": 70,
        "contract": "contracts/FundMe.sol:FundMe",
        "label": "s_priceFeed",
        "offset": 0,
        "slot": "2",
        "type": "t_contract(AggregatorV3Interface)45"
      }
    ],
    "types": {
      "t_address": {
        "encoding": "inplace",
        "label": "address",
        "numberOfBytes": "20"
      },
      "t_array(t_address)dyn_storage": {
        "base": "t_address",
        "encoding": "dynamic_array",
        "label": "address[]",
        "numberOfBytes": "32"
      },
      "t_contract(AggregatorV3Interface)45": {
        "encoding": "inplace",
        "label": "contract AggregatorV3Interface",
        "numberOfBytes": "20"
      },
      "t_mapping(t_address,t_uint256)": {
        "encoding": "mapping",
        "key": "t_address",
        "label": "mapping(address => uint256)",
        "numberOfBytes": "32",
        "value": "t_uint256"
      },
      "t_uint256": {
        "encoding": "inplace",
        "label": "uint256",
        "numberOfBytes": "32"
      }
    }
  }
}