{
  "address": "0x0aC26e6B8CCE54341100315f60930E3Ae51fF83d",
  "abi": [
    {
      "inputs": [
        {
          "internalType": "address",
          "name": "priceFeedAddress",
          "type": "address"
        }
      ],
      "stateMutability": "nonpayable",
      "type": "constructor"
    },
    {
      "inputs": [],
      "name": "NotOwner",
      "type": "error"
    },
    {
      "stateMutability": "payable",
      "type": "fallback"
    },
    {
      "inputs": [
        {
          "internalType": "address",
          "name": "",
          "type": "address"
        }
      ],
      "name": "addressToAmountFunded",
      "outputs": [
        {
          "internalType": "uint256",
          "name": "",
          "type": "uint256"
        }
      ],
      "stateMutability": "view",
      "type": "function"
    },
    {
      "inputs": [],
      "name": "fund",
      "outputs": [],
      "stateMutability": "payable",
      "type": "function"
    },
    {
      "inputs": [
        {
          "internalType": "uint256",
          "name": "",
          "type": "uint256"
        }
      ],
      "name": "funders",
      "outputs": [
        {
          "internalType": "address",
          "name": "",
          "type": "address"
        }
      ],
      "stateMutability": "view",
      "type": "function"
    },
    {
      "inputs": [],
      "name": "i_owner",
      "outputs": [
        {
          "internalType": "address",
          "name": "",
          "type": "address"
        }
      ],
      "stateMutability": "view",
      "type": "function"
    },
    {
      "inputs": [],
      "name": "minimumUSD",
      "outputs": [
        {
          "internalType": "uint256",
          "name": "",
          "type": "uint256"
        }
      ],
      "stateMutability": "view",
      "type": "function"
    },
    {
      "inputs": [],
      "name": "withdraw",
      "outputs": [],
      "stateMutability": "nonpayable",
      "type": "function"
    },
    {
      "stateMutability": "payable",
      "type": "receive"
    }
  ],
  "transactionHash": "0x1f6b4ebb9df2182eb6bbdec6da13715eac34b4c928428a168af036cfeb414463",
  "args": [
    "0x694AA1769357215DE4FAC081bf1f309aDC325306"
  ],
  "numDeployments": 1,
  "solcInputHash": "a2b500f76e23f77ca74a238e1a08da29",
  "bytecode": "0x60a060405234801561001057600080fd5b50604051610e9b380380610e9b83398181016040528101906100329190610113565b3373ffffffffffffffffffffffffffffffffffffffff1660808173ffffffffffffffffffffffffffffffffffffffff1660601b8152505080600260006101000a81548173ffffffffffffffffffffffffffffffffffffffff021916908373ffffffffffffffffffffffffffffffffffffffff16021790555050610140565b600080fd5b600073ffffffffffffffffffffffffffffffffffffffff82169050919050565b60006100e0826100b5565b9050919050565b6100f0816100d5565b81146100fb57600080fd5b50565b60008151905061010d816100e7565b92915050565b600060208284031215610129576101286100b0565b5b6000610137848285016100fe565b91505092915050565b60805160601c610d366101656000396000818161029f01526104f70152610d366000f3fe6080604052600436106100595760003560e01c80633430a88c146100725780633ccfd60b1461009d5780633e47d6f3146100b4578063b60d4288146100f1578063dba6335f146100fb578063dc0d3dff1461012657610068565b3661006857610066610163565b005b610070610163565b005b34801561007e57600080fd5b50610087610291565b60405161009491906106f4565b60405180910390f35b3480156100a957600080fd5b506100b261029d565b005b3480156100c057600080fd5b506100db60048036038101906100d69190610772565b6104dd565b6040516100e891906106f4565b60405180910390f35b6100f9610163565b005b34801561010757600080fd5b506101106104f5565b60405161011d91906107ae565b60405180910390f35b34801561013257600080fd5b5061014d600480360381019061014891906107f5565b610519565b60405161015a91906107ae565b60405180910390f35b678ac7230489e800006101a1600260009054906101000a900473ffffffffffffffffffffffffffffffffffffffff163461055890919063ffffffff16565b10156101e2576040517f08c379a00000000000000000000000000000000000000000000000000000000081526004016101d99061087f565b60405180910390fd5b60003390506000819080600181540180825580915050600190039060005260206000200160009091909190916101000a81548173ffffffffffffffffffffffffffffffffffffffff021916908373ffffffffffffffffffffffffffffffffffffffff16021790555034600160008373ffffffffffffffffffffffffffffffffffffffff1673ffffffffffffffffffffffffffffffffffffffff1681526020019081526020016000208190555050565b678ac7230489e8000081565b7f000000000000000000000000000000000000000000000000000000000000000073ffffffffffffffffffffffffffffffffffffffff163373ffffffffffffffffffffffffffffffffffffffff1614610322576040517f30cd747100000000000000000000000000000000000000000000000000000000815260040160405180910390fd5b60005b6000805490508110156103cd5760008082815481106103475761034661089f565b5b9060005260206000200160009054906101000a900473ffffffffffffffffffffffffffffffffffffffff1690506000600160008373ffffffffffffffffffffffffffffffffffffffff1673ffffffffffffffffffffffffffffffffffffffff168152602001908152602001600020819055505080806103c5906108fd565b915050610325565b50600067ffffffffffffffff8111156103e9576103e8610946565b5b6040519080825280602002602001820160405280156104175781602001602082028036833780820191505090505b506000908051906020019061042d929190610634565b5060003373ffffffffffffffffffffffffffffffffffffffff1647604051610454906109a6565b60006040518083038185875af1925050503d8060008114610491576040519150601f19603f3d011682016040523d82523d6000602084013e610496565b606091505b50509050806104da576040517f08c379a00000000000000000000000000000000000000000000000000000000081526004016104d190610a07565b60405180910390fd5b50565b60016020528060005260406000206000915090505481565b7f000000000000000000000000000000000000000000000000000000000000000081565b6000818154811061052957600080fd5b906000526020600020016000915054906101000a900473ffffffffffffffffffffffffffffffffffffffff1681565b60008061056483610594565b90506000670de0b6b3a7640000858361057d9190610a27565b6105879190610ab0565b9050809250505092915050565b6000808273ffffffffffffffffffffffffffffffffffffffff1663feaf968c6040518163ffffffff1660e01b815260040160a06040518083038186803b1580156105dd57600080fd5b505afa1580156105f1573d6000803e3d6000fd5b505050506040513d601f19601f820116820180604052508101906106159190610b6e565b5050509150506402540be4008161062c9190610be9565b915050919050565b8280548282559060005260206000209081019282156106ad579160200282015b828111156106ac5782518260006101000a81548173ffffffffffffffffffffffffffffffffffffffff021916908373ffffffffffffffffffffffffffffffffffffffff16021790555091602001919060010190610654565b5b5090506106ba91906106be565b5090565b5b808211156106d75760008160009055506001016106bf565b5090565b6000819050919050565b6106ee816106db565b82525050565b600060208201905061070960008301846106e5565b92915050565b600080fd5b600073ffffffffffffffffffffffffffffffffffffffff82169050919050565b600061073f82610714565b9050919050565b61074f81610734565b811461075a57600080fd5b50565b60008135905061076c81610746565b92915050565b6000602082840312156107885761078761070f565b5b60006107968482850161075d565b91505092915050565b6107a881610734565b82525050565b60006020820190506107c3600083018461079f565b92915050565b6107d2816106db565b81146107dd57600080fd5b50565b6000813590506107ef816107c9565b92915050565b60006020828403121561080b5761080a61070f565b5b6000610819848285016107e0565b91505092915050565b600082825260208201905092915050565b7f4469646e27742073656e6420656e6f7567680000000000000000000000000000600082015250565b6000610869601283610822565b915061087482610833565b602082019050919050565b600060208201905081810360008301526108988161085c565b9050919050565b7f4e487b7100000000000000000000000000000000000000000000000000000000600052603260045260246000fd5b7f4e487b7100000000000000000000000000000000000000000000000000000000600052601160045260246000fd5b6000610908826106db565b91507fffffffffffffffffffffffffffffffffffffffffffffffffffffffffffffffff82141561093b5761093a6108ce565b5b600182019050919050565b7f4e487b7100000000000000000000000000000000000000000000000000000000600052604160045260246000fd5b600081905092915050565b50565b6000610990600083610975565b915061099b82610980565b600082019050919050565b60006109b182610983565b9150819050919050565b7f53656e64206661696c6564000000000000000000000000000000000000000000600082015250565b60006109f1600b83610822565b91506109fc826109bb565b602082019050919050565b60006020820190508181036000830152610a20816109e4565b9050919050565b6000610a32826106db565b9150610a3d836106db565b9250817fffffffffffffffffffffffffffffffffffffffffffffffffffffffffffffffff0483118215151615610a7657610a756108ce565b5b828202905092915050565b7f4e487b7100000000000000000000000000000000000000000000000000000000600052601260045260246000fd5b6000610abb826106db565b9150610ac6836106db565b925082610ad657610ad5610a81565b5b828204905092915050565b600069ffffffffffffffffffff82169050919050565b610b0081610ae1565b8114610b0b57600080fd5b50565b600081519050610b1d81610af7565b92915050565b6000819050919050565b610b3681610b23565b8114610b4157600080fd5b50565b600081519050610b5381610b2d565b92915050565b600081519050610b68816107c9565b92915050565b600080600080600060a08688031215610b8a57610b8961070f565b5b6000610b9888828901610b0e565b9550506020610ba988828901610b44565b9450506040610bba88828901610b59565b9350506060610bcb88828901610b59565b9250506080610bdc88828901610b0e565b9150509295509295909350565b6000610bf482610b23565b9150610bff83610b23565b9250827f7fffffffffffffffffffffffffffffffffffffffffffffffffffffffffffffff0482116000841360008413161615610c3e57610c3d6108ce565b5b817f80000000000000000000000000000000000000000000000000000000000000000583126000841260008413161615610c7b57610c7a6108ce565b5b827f80000000000000000000000000000000000000000000000000000000000000000582126000841360008412161615610cb857610cb76108ce565b5b827f7fffffffffffffffffffffffffffffffffffffffffffffffffffffffffffffff0582126000841260008412161615610cf557610cf46108ce565b5b82820290509291505056fea26469706673582212207e0a486b807316770b96755395db7e7c49f5398039c08d685d669176482f589564736f6c63430008080033",
  "devdoc": {
    "kind": "dev",
    "methods": {},
    "version": 1
  },
  "userdoc": {
    "kind": "user",
    "methods": {},
    "version": 1
  },
  "storageLayout": {
    "storage": [
      {
        "astId": 61,
        "contract": "contracts/FundMe.sol:FundMe",
        "label": "funders",
        "offset": 0,
        "slot": "0",
        "type": "t_array(t_address)dyn_storage"
      },
      {
        "astId": 65,
        "contract": "contracts/FundMe.sol:FundMe",
        "label": "addressToAmountFunded",
        "offset": 0,
        "slot": "1",
        "type": "t_mapping(t_address,t_uint256)"
      },
      {
        "astId": 70,
        "contract": "contracts/FundMe.sol:FundMe",
        "label": "priceFeed",
        "offset": 0,
        "slot": "2",
        "type": "t_contract(AggregatorV3Interface)45"
      }
    ],
    "types": {
      "t_address": {
        "encoding": "inplace",
        "label": "address",
        "numberOfBytes": "20"
      },
      "t_array(t_address)dyn_storage": {
        "base": "t_address",
        "encoding": "dynamic_array",
        "label": "address[]",
        "numberOfBytes": "32"
      },
      "t_contract(AggregatorV3Interface)45": {
        "encoding": "inplace",
        "label": "contract AggregatorV3Interface",
        "numberOfBytes": "20"
      },
      "t_mapping(t_address,t_uint256)": {
        "encoding": "mapping",
        "key": "t_address",
        "label": "mapping(address => uint256)",
        "numberOfBytes": "32",
        "value": "t_uint256"
      },
      "t_uint256": {
        "encoding": "inplace",
        "label": "uint256",
        "numberOfBytes": "32"
      }
    }
  }
}